:100000000C942A000C9447000C9447000C94470071
:100010000C9447000C9447000C9447000C94470044
:100020000C9447000C9447000C9447000C94470034
:100030000C9447000C9447000C9447000C94470024
:100040000C9447000C9447000C9447000C94470014
:100050000C94470011241FBECFE5D8E0DEBFCDBF12
:1000600011E0A0E6B0E0EEE2FFE002C005900D92E4
:10007000A833B107D9F711E0A8E3B1E001C01D92A0
:10008000AF33B107E1F70E94C4040C9495070C94B8
:100090000000683008F090C0843409F471C08534E1
:1000A00048F4823499F1833408F04DC0813409F06A
:1000B00083C00FC0823651F1833620F4813609F0B7
:1000C0007BC007C0833609F43EC0843609F074C093
:1000D00057C0413069F42AB381E090E0AC0102C01E
:1000E000440F551F6A95E2F7BA01622B6ABB089567
:1000F0002AB381E090E0AC0102C0440F551F6A951D
:10010000E2F7BA01609562236ABB0895413069F451
:1001100027B381E090E0AC0102C0440F551F6A95FF
:10012000E2F7BA01622B67BB089527B381E090E044
:10013000AC0102C0440F551F6A95E2F7BA01609501
:10014000622367BB0895413069F424B381E090E0F5
:10015000AC0102C0440F551F6A95E2F7BA01622B49
:1001600064BB089524B381E090E0AC0102C0440F69
:10017000551F6A95E2F7BA016095622364BB089542
:10018000413069F421B381E090E0AC0102C0440F3A
:10019000551F6A95E2F7BA01622B61BB089521B33E
:1001A00081E090E0AC0102C0440F551F6A95E2F770
:1001B000BA016095622361BB0895683008F090C071
:1001C000843409F471C0853448F4823499F183345D
:1001D00008F04DC0813409F083C00FC0823651F160
:1001E000833620F4813609F07BC007C0833609F4DA
:1001F0003EC0843609F074C057C0413069F42BB357
:1002000081E090E0AC0102C0440F551F6A95E2F70F
:10021000BA01622B6BBB08952BB381E090E0AC0177
:1002200002C0440F551F6A95E2F7BA016095622338
:100230006BBB0895413069F428B381E090E0AC01D4
:1002400002C0440F551F6A95E2F7BA01622B68BBE2
:10025000089528B381E090E0AC0102C0440F551F1F
:100260006A95E2F7BA016095622368BB0895413050
:1002700069F425B381E090E0AC0102C0440F551F42
:100280006A95E2F7BA01622B65BB089525B381E058
:1002900090E0AC0102C0440F551F6A95E2F7BA0125
:1002A0006095622365BB0895413069F422B381E013
:1002B00090E0AC0102C0440F551F6A95E2F7BA0105
:1002C000622B62BB089522B381E090E0AC0102C0D2
:1002D000440F551F6A95E2F7BA016095622362BB2D
:1002E0000895683008F04CC0843409F43DC085346A
:1002F00040F48234F9F0833450F5813409F040C081
:100300000CC08236B9F0833618F48136C9F505C0C1
:100310008336E9F08436A1F527C02BB381E090E065
:10032000AC0102C0440F551F6A95E2F7BA0162277B
:100330006BBB089528B381E090E0AC0102C0440F8C
:10034000551F6A95E2F7BA01622768BB089525B385
:1003500081E090E0AC0102C0440F551F6A95E2F7BE
:10036000BA01622765BB089522B381E090E0AC0139
:1003700002C0440F551F6A95E2F7BA01622762BBBB
:100380000895683008F03FC0843499F1853438F41A
:100390008234D9F0833418F58134B9F50CC0823633
:1003A000A1F0833618F4813681F505C08336B9F0A3
:1003B000843659F51EC029B330E0C90102C09595B5
:1003C00087956A95E2F78170089526B330E0C901F8
:1003D00002C0959587956A95E2F78170089523B3D9
:1003E00030E0C90102C0959587956A95E2F7817062
:1003F000089520B330E0C90102C0959587956A95AC
:10040000E2F78170089580E0089580E008958434D3
:10041000D9F0853438F4823499F0833498F48134F7
:10042000A1F40CC0823661F0833618F4813669F489
:1004300005C0833639F0843641F406C06ABB08959E
:1004400067BB089564BB089561BB08958434D9F0F7
:10045000853438F4823499F0833498F48134A1F4EB
:100460000CC0823661F0833618F4813669F405C019
:10047000833639F0843641F406C06BBB089568BBFF
:10048000089565BB089562BB08958434D9F085341E
:1004900038F4823499F0833498F48134A1F40CC098
:1004A000823661F0833618F4813669F405C08336EC
:1004B00039F0843641F406C099B305C096B303C041
:1004C00093B301C090B3892F0895843409F1853422
:1004D00038F48234A9F08334B8F48134E1F40CC0E8
:1004E000823671F0833618F48136A9F405C083365C
:1004F00059F0843681F40CC08BB380958BBB089582
:1005000088B3809588BB089585B3809585BB089591
:1005100082B3809582BB08956295607F843451F1E7
:10052000853438F48234C1F08334E8F4813441F501
:100530000CC0823689F0833618F4813609F505C07F
:10054000833689F08436E1F415C08BB38F708BBB92
:100550008BB3682B6BBB089588B38F7088BB88B34F
:10056000682B68BB089585B38F7085BB85B3682BF6
:1005700065BB089582B38F7082BB82B3682B62BB68
:1005800008956F70843451F1853438F48234C1F0A9
:100590008334E8F4813441F50CC0823689F0833627
:1005A00018F4813609F505C0833689F08436E1F404
:1005B00015C08BB3807F8BBB8BB3682B6BBB08954F
:1005C00088B3807F88BB88B3682B68BB089585B3E8
:1005D000807F85BB85B3682B65BB089582B3807F20
:1005E00082BB82B3682B62BB08950E94DD00089530
:1005F0008EBB9FBB9FBB8EBB6DBBE29AE19A8CB357
:1006000081FDFDCF08958EBB9FBB9FBB8EBBE09A43
:100610008DB308950E94C101089584E66FE00E94A1
:10062000070284E664E041E00E94F50284E665E0AA
:1006300041E00E94F50284E666E041E00E94F50296
:1006400084E667E041E00E94F5020895EF92FF9290
:100650001F93CF93DF93CDB7DEB760970FB6F894B3
:10066000DEBF0FBECDBFDE011196E0E6F0E080E117
:1006700001900D928150E1F7EE24FF2484E660E0C2
:1006800041E00E94DD0084E661E041E00E94DD007F
:1006900084E662E041E00E94DD0084E663E041E040
:1006A0000E94DD0084E66E2D40E00E94DD0010E037
:1006B000612F6C5F84E60E940A03882389F4F701A6
:1006C000EE0FFF1FEE0FFF1FE10FF11D81E090E025
:1006D0008C0F9D1FE80FF91F80818F3F21F00BC009
:1006E0001F5F143029F70894E11CF11C94E0E9160F
:1006F000F10421F68FEF60960FB6F894DEBF0FBEBF
:10070000CDBFDF91CF911F91FF90EF9008950E9490
:1007100026038F3F11F080530895089582E462E02C
:1007200041E00E94490082E462E040E00E94DD0076
:100730008FE99FE00197F1F700C0000082E462E0DA
:1007400041E00E94DD008FE19EE40197F1F700C0D7
:10075000000082E462E040E00E94DD008FE097E26A
:100760000197F1F700C000000895CF93DF93D82FD1
:10077000C62F82E460E040E00E94DD0082E461E098
:1007800040E00E94DD00CC2389F0C130E9F46D2FF8
:1007900062956F7081E40E948C020E948E0381E456
:1007A0006D2F0E948C020E948E030EC06D2F6295E9
:1007B0006F7081E40E94C1020E948E0381E46D2F5C
:1007C0000E94C1020E948E03DF91CF9108952FE70E
:1007D00038E341E0215030404040E1F700C00000E4
:1007E000882319F0813051F515C081E460E041E0C3
:1007F0000E94490081E461E041E00E94490081E4F7
:1008000062E041E00E94490081E463E041E00E942F
:10081000490014C081E464E041E00E94490081E4A1
:1008200065E041E00E94490081E466E041E00E9409
:10083000490081E467E041E00E94490082E461E010
:1008400041E00E94490082E460E041E00E944900EA
:1008500082E462E041E00E94490082E461E040E01D
:100860000E94DD0082E061E00E94B5038FE19EE41A
:100870000197F1F700C0000088E261E00E94B50333
:100880008FE097E20197F1F700C000008CE061E093
:100890000E94B5038FE097E20197F1F700C00000D6
:1008A00081E061E00E94B5038FE19EE40197F1F7DA
:1008B00000C0000086E061E00E94B5038FE097E28F
:1008C0000197F1F700C000000895CF93DF93D82F70
:1008D000C62F82E460E041E00E94DD0082E461E036
:1008E00040E00E94DD00CC2389F0C130E9F46D2F97
:1008F00062956F7081E40E948C020E948E0381E4F5
:100900006D2F0E948C020E948E030EC06D2F629587
:100910006F7081E40E94C1020E948E0381E46D2FFA
:100920000E94C1020E948E03DF91CF910895CF9360
:10093000DF93EC018881882339F0219661E00E94E1
:10094000650489918823D1F7DF91CF910895982F7D
:100950009150923020F4662311F0613128F080E844
:1009600061E00E94B5030895813031F4862F8158EB
:1009700061E00E94B5030895823029F4862F8154E6
:1009800061E00E94B5030895CF93DF9300D00F92EA
:10099000CDB7DEB781E00E94E7030E940D0381E03E
:1009A00064E00E94A70480E790E00E94970482E040
:1009B00063E00E94A7048BE790E00E9497048FEF0A
:1009C0009EE9A4E281509040A040E1F700C0000001
:1009D00081E061E00E94B50382E466E041E00E94AC
:1009E000490082E467E041E00E94490044246894A1
:1009F00041F800E00F2EFBE3EF2EF1E0FF2EF02D8B
:100A00000F2EFDEF6F2EFFEF7F2EF02D6E0C7F1C53
:100A10000F2EFEE3CF2EF1E0DF2EF02D160108940D
:100A2000210831080F2EF7E9AF2EF0E0BF2EF02D90
:100A300069827A8280E290E00E9403038F3F09F08E
:100A4000CFC088E890E00E94970482E061E00E94B5
:100A5000A704C5010E94970401E210E00E9426034A
:100A60008F3FE1F30E942603682FC8010E94F8021D
:100A70000F2EF9EE8F2EF02D800E82E0682D0E9451
:100A8000A7040E94260361E00E9465048FEF94E3AF
:100A9000ACE081509040A040E1F700C0000082E04F
:100AA000682D0E94A7048AE261E00E9465040F5F3E
:100AB0001F4F0532110591F681E061E00E94B503F8
:100AC00081E065E00E94A70481EA90E00E9497041B
:100AD00082E066E00E94A7048AEA90E00E94970400
:100AE0008FEF94E3ACE081509040A040E1F700C06C
:100AF000000080E290E060E00E94F80281E061E0A6
:100B00000E94B5038FEF94E3ACE081509040A04089
:100B1000E1F700C0000080E290E00E940303882318
:100B200009F0FFC181EB90E00E94970482E061E050
:100B30000E94A7048CEB90E00E94970405E210E06D
:100B40000E9426038F3FE1F30E942603682FC8010D
:100B50000E94F8020F2EF1EE8F2EF02D800E82E013
:100B6000682D0E94A7040E94260361E00E9465048C
:100B70008FEF94E3ACE081509040A040E1F700C0DB
:100B8000000082E0682D0E94A7048AE261E00E94D2
:100B900065040F5F1F4F0832110591F681E061E097
:100BA0000E94B50381E066E00E94A70482EC90E019
:100BB0000E94970482E066E00E94A7048AEA90E01F
:100BC0000E9497048FEF94E3ACE081509040A040E6
:100BD000E1F700C0000081E061E00E94B503A1C11F
:100BE000002309F027CF02C0452C05C04701089417
:100BF000810891080B838FEFD7018C93F4018083D8
:100C000080933901D3018C93F6018083D1018C93B9
:100C100080933C0189EC90E00E94970482E061E0BF
:100C20000E94A704C5010E94970409811A810F2E12
:100C3000FAE05F2EF02D0E9426038F3FE1F30E9421
:100C40002603F80181938F0161E00E94650482E030
:100C5000652D0E94A7048FEF94E3ACE08150904093
:100C6000A040E1F700C000008AE261E00E94650454
:100C700053949EE05916F9F681E290E00E94030336
:100C8000282F30E0E8E3F1E08081992787FD9095F7
:100C90002817390709F046C082E290E00E9403035A
:100CA000282F30E0A9E3B1E08C91992787FD90953A
:100CB00028173907B9F583E290E00E940303282F33
:100CC00030E0EAE3F1E08081992787FD90952817CD
:100CD000390741F584E290E00E940303282F30E0B9
:100CE000D7018C91992787FD909528173907D1F462
:100CF00081E061E00E94B50381E063E00E94A70407
:100D00008AED90E00E94970482E064E00E94A704CC
:100D100087EE90E00E94970482E666E041E00E9440
:100D2000DD0001C1542C5A9469F181E061E00E9418
:100D3000B50381E064E00E94A70484EF90E00E9484
:100D4000970482E061E00E94A7048FEF90E00E9488
:100D50009704842D815D61E00E9465048FEF99E620
:100D6000A8E181509040A040E1F700C0000081E080
:100D700061E00E94B5039B81992309F435CF092FC7
:100D8000452C58CE81E061E00E94B50381E062E02D
:100D90000E94A7048BE091E00E94970482E062E049
:100DA0000E94A70482E667E041E00E94DD008FEF29
:100DB00098E0ADE381509040A040E1F700C0000012
:100DC00082E667E040E00E94DD0081E061E00E9491
:100DD000B5038AE191E00E94970482E061E00E94FD
:100DE000A7048CEB90E00E9497040CE311E00F2E17
:100DF000F6E08F2EF02D0E9426038F3FE1F30E9434
:100E00002603D8018D938D0161E00E94650482E084
:100E1000682D0E94A7048FEF94E3ACE081509040CE
:100E2000A040E1F700C000008AE261E00E94650492
:100E3000839499E08916F9F685E290E00E94030315
:100E4000282F30E080913C01992787FD9095281745
:100E5000390709F044C086E290E00E940303282F7E
:100E600030E080913D01992787FD9095281739073B
:100E7000B1F587E290E00E940303282F30E0D6010D
:100E80008C91992787FD90952817390741F580E2C5
:100E900090E06FEF0E94F80281E290E06FEF0E9415
:100EA000F80282E290E06FEF0E94F80283E290E0A5
:100EB0006FEF0E94F80284E290E06FEF0E94F80268
:100EC00081E061E00E94B50381E061E00E94A70437
:100ED00082E667E040E00E94DD00452C24C081E00E
:100EE00061E00E94B50381E065E00E94A70487E20B
:100EF00091E00E94970482E066E00E94A70480E3EC
:100F000091E00E94970482E667E00E9471018FEFF2
:100F100091EEA4E081509040A040E1F700C00000B5
:0E0F2000F2CF00E063CE01E085CDF894FFCF64
:100F2E003132332B3435362D3738392F2A30253D93
:100F3E0057454C434F4D4520544F00534146452095
:100F4E004D414348494E4500454E54455220594F58
:100F5E005552204E45570050415353574F52443A25
:100F6E000050415353574F52440053455454454437
:100F7E0000534554204241434B555000504153536A
:100F8E003A004241434B555000504C454153452089
:100F9E00454E5445522054484500434F5252454306
:100FAE00542050415353004C4F434B204F50454E0D
:100FBE0045442100494E434F52524543542100545B
:100FCE00525920414741494E533A00494E545255C9
:100FDE0044455220414C41524D00454E54455220FD
:100FEE004241434B555000534543555249545900C5
:080FFE00414C41524D2100005D
:00000001FF
